{
  "contractName": "ClinicalTest",
  "abi": [
    {
      "constant": true,
      "inputs": [
        {
          "name": "",
          "type": "address"
        }
      ],
      "name": "clinicalTests",
      "outputs": [
        {
          "name": "companyAddress",
          "type": "address"
        },
        {
          "name": "subject",
          "type": "string"
        },
        {
          "name": "title",
          "type": "string"
        },
        {
          "name": "gender",
          "type": "string"
        },
        {
          "name": "age",
          "type": "string"
        },
        {
          "name": "bmi",
          "type": "string"
        },
        {
          "name": "smoking",
          "type": "string"
        },
        {
          "name": "volume",
          "type": "uint256"
        }
      ],
      "payable": false,
      "stateMutability": "view",
      "type": "function"
    },
    {
      "constant": true,
      "inputs": [],
      "name": "company",
      "outputs": [
        {
          "name": "",
          "type": "address"
        }
      ],
      "payable": false,
      "stateMutability": "view",
      "type": "function"
    },
    {
      "constant": true,
      "inputs": [
        {
          "name": "",
          "type": "uint256"
        }
      ],
      "name": "clinicalTestList",
      "outputs": [
        {
          "name": "companyAddress",
          "type": "address"
        },
        {
          "name": "subject",
          "type": "string"
        },
        {
          "name": "title",
          "type": "string"
        },
        {
          "name": "gender",
          "type": "string"
        },
        {
          "name": "age",
          "type": "string"
        },
        {
          "name": "bmi",
          "type": "string"
        },
        {
          "name": "smoking",
          "type": "string"
        },
        {
          "name": "volume",
          "type": "uint256"
        }
      ],
      "payable": false,
      "stateMutability": "view",
      "type": "function"
    },
    {
      "inputs": [],
      "payable": false,
      "stateMutability": "nonpayable",
      "type": "constructor"
    },
    {
      "constant": true,
      "inputs": [],
      "name": "getClinicalTests",
      "outputs": [
        {
          "name": "",
          "type": "address[]"
        },
        {
          "name": "",
          "type": "string[]"
        },
        {
          "name": "",
          "type": "string[]"
        }
      ],
      "payable": false,
      "stateMutability": "view",
      "type": "function"
    },
    {
      "constant": true,
      "inputs": [],
      "name": "getClinicalTestDetails",
      "outputs": [
        {
          "name": "",
          "type": "address[]"
        },
        {
          "name": "",
          "type": "string[]"
        },
        {
          "name": "",
          "type": "string[]"
        },
        {
          "name": "",
          "type": "string[]"
        },
        {
          "name": "",
          "type": "string[]"
        },
        {
          "name": "",
          "type": "uint256[]"
        }
      ],
      "payable": false,
      "stateMutability": "view",
      "type": "function"
    },
    {
      "constant": false,
      "inputs": [
        {
          "name": "companyAddress",
          "type": "address"
        },
        {
          "name": "subject",
          "type": "string"
        },
        {
          "name": "title",
          "type": "string"
        },
        {
          "name": "gender",
          "type": "string"
        },
        {
          "name": "age",
          "type": "string"
        },
        {
          "name": "bmi",
          "type": "string"
        },
        {
          "name": "smoking",
          "type": "string"
        },
        {
          "name": "volume",
          "type": "uint256"
        }
      ],
      "name": "createClinicalTest",
      "outputs": [],
      "payable": false,
      "stateMutability": "nonpayable",
      "type": "function"
    }
  ],
  "bytecode": "0x608060405234801561001057600080fd5b50336000806101000a81548173ffffffffffffffffffffffffffffffffffffffff021916908373ffffffffffffffffffffffffffffffffffffffff160217905550611faa806100606000396000f300608060405260043610610078576000357c0100000000000000000000000000000000000000000000000000000000900463ffffffff1680630442dac31461007d578063321f42c1146100ad5780636904c94d146100f1578063be76eb261461011c578063eea4e50d14610160578063f9abb23614610189575b600080fd5b34801561008957600080fd5b506100926101b6565b6040516100a496959493929190611d4b565b60405180910390f35b3480156100b957600080fd5b506100d460048036036100cf91908101906118d3565b610780565b6040516100e8989796959493929190611c57565b60405180910390f35b3480156100fd57600080fd5b50610106610b78565b6040516101139190611c3c565b60405180910390f35b34801561012857600080fd5b50610143600480360361013e9190810190611a3e565b610b9d565b604051610157989796959493929190611c57565b60405180910390f35b34801561016c57600080fd5b50610187600480360361018291908101906118fc565b610fa4565b005b34801561019557600080fd5b5061019e611412565b6040516101ad93929190611cff565b60405180910390f35b60608060608060608060608060608060608060006002805490506040519080825280602002602001820160405280156101fe5781602001602082028038833980820191505090505b50965060028054905060405190808252806020026020018201604052801561023a57816020015b60608152602001906001900390816102255790505b50955060028054905060405190808252806020026020018201604052801561027657816020015b60608152602001906001900390816102615790505b5094506002805490506040519080825280602002602001820160405280156102b257816020015b606081526020019060019003908161029d5790505b5093506002805490506040519080825280602002602001820160405280156102ee57816020015b60608152602001906001900390816102d95790505b5092506002805490506040519080825280602002602001820160405280156103255781602001602082028038833980820191505090505b509150600090505b60028054905081101561075f5760028181548110151561034957fe5b906000526020600020906008020160000160009054906101000a900473ffffffffffffffffffffffffffffffffffffffff16878281518110151561038957fe5b9060200190602002019073ffffffffffffffffffffffffffffffffffffffff16908173ffffffffffffffffffffffffffffffffffffffff16815250506002818154811015156103d457fe5b90600052602060002090600802016003018054600181600116156101000203166002900480601f0160208091040260200160405190810160405280929190818152602001828054600181600116156101000203166002900480156104795780601f1061044e57610100808354040283529160200191610479565b820191906000526020600020905b81548152906001019060200180831161045c57829003601f168201915b5050505050868281518110151561048c57fe5b906020019060200201819052506002818154811015156104a857fe5b90600052602060002090600802016004018054600181600116156101000203166002900480601f01602080910402602001604051908101604052809291908181526020018280546001816001161561010002031660029004801561054d5780601f106105225761010080835404028352916020019161054d565b820191906000526020600020905b81548152906001019060200180831161053057829003601f168201915b5050505050858281518110151561056057fe5b9060200190602002018190525060028181548110151561057c57fe5b90600052602060002090600802016005018054600181600116156101000203166002900480601f0160208091040260200160405190810160405280929190818152602001828054600181600116156101000203166002900480156106215780601f106105f657610100808354040283529160200191610621565b820191906000526020600020905b81548152906001019060200180831161060457829003601f168201915b5050505050848281518110151561063457fe5b9060200190602002018190525060028181548110151561065057fe5b90600052602060002090600802016006018054600181600116156101000203166002900480601f0160208091040260200160405190810160405280929190818152602001828054600181600116156101000203166002900480156106f55780601f106106ca576101008083540402835291602001916106f5565b820191906000526020600020905b8154815290600101906020018083116106d857829003601f168201915b5050505050838281518110151561070857fe5b9060200190602002018190525060028181548110151561072457fe5b906000526020600020906008020160070154828281518110151561074457fe5b9060200190602002018181525050808060010191505061032d565b8686868686869c509c509c509c509c509c5050505050505050909192939495565b60016020528060005260406000206000915090508060000160009054906101000a900473ffffffffffffffffffffffffffffffffffffffff1690806001018054600181600116156101000203166002900480601f0160208091040260200160405190810160405280929190818152602001828054600181600116156101000203166002900480156108525780601f1061082757610100808354040283529160200191610852565b820191906000526020600020905b81548152906001019060200180831161083557829003601f168201915b505050505090806002018054600181600116156101000203166002900480601f0160208091040260200160405190810160405280929190818152602001828054600181600116156101000203166002900480156108f05780601f106108c5576101008083540402835291602001916108f0565b820191906000526020600020905b8154815290600101906020018083116108d357829003601f168201915b505050505090806003018054600181600116156101000203166002900480601f01602080910402602001604051908101604052809291908181526020018280546001816001161561010002031660029004801561098e5780601f106109635761010080835404028352916020019161098e565b820191906000526020600020905b81548152906001019060200180831161097157829003601f168201915b505050505090806004018054600181600116156101000203166002900480601f016020809104026020016040519081016040528092919081815260200182805460018160011615610100020316600290048015610a2c5780601f10610a0157610100808354040283529160200191610a2c565b820191906000526020600020905b815481529060010190602001808311610a0f57829003601f168201915b505050505090806005018054600181600116156101000203166002900480601f016020809104026020016040519081016040528092919081815260200182805460018160011615610100020316600290048015610aca5780601f10610a9f57610100808354040283529160200191610aca565b820191906000526020600020905b815481529060010190602001808311610aad57829003601f168201915b505050505090806006018054600181600116156101000203166002900480601f016020809104026020016040519081016040528092919081815260200182805460018160011615610100020316600290048015610b685780601f10610b3d57610100808354040283529160200191610b68565b820191906000526020600020905b815481529060010190602001808311610b4b57829003601f168201915b5050505050908060070154905088565b6000809054906101000a900473ffffffffffffffffffffffffffffffffffffffff1681565b600281815481101515610bac57fe5b90600052602060002090600802016000915090508060000160009054906101000a900473ffffffffffffffffffffffffffffffffffffffff1690806001018054600181600116156101000203166002900480601f016020809104026020016040519081016040528092919081815260200182805460018160011615610100020316600290048015610c7e5780601f10610c5357610100808354040283529160200191610c7e565b820191906000526020600020905b815481529060010190602001808311610c6157829003601f168201915b505050505090806002018054600181600116156101000203166002900480601f016020809104026020016040519081016040528092919081815260200182805460018160011615610100020316600290048015610d1c5780601f10610cf157610100808354040283529160200191610d1c565b820191906000526020600020905b815481529060010190602001808311610cff57829003601f168201915b505050505090806003018054600181600116156101000203166002900480601f016020809104026020016040519081016040528092919081815260200182805460018160011615610100020316600290048015610dba5780601f10610d8f57610100808354040283529160200191610dba565b820191906000526020600020905b815481529060010190602001808311610d9d57829003601f168201915b505050505090806004018054600181600116156101000203166002900480601f016020809104026020016040519081016040528092919081815260200182805460018160011615610100020316600290048015610e585780601f10610e2d57610100808354040283529160200191610e58565b820191906000526020600020905b815481529060010190602001808311610e3b57829003601f168201915b505050505090806005018054600181600116156101000203166002900480601f016020809104026020016040519081016040528092919081815260200182805460018160011615610100020316600290048015610ef65780601f10610ecb57610100808354040283529160200191610ef6565b820191906000526020600020905b815481529060010190602001808311610ed957829003601f168201915b505050505090806006018054600181600116156101000203166002900480601f016020809104026020016040519081016040528092919081815260200182805460018160011615610100020316600290048015610f945780601f10610f6957610100808354040283529160200191610f94565b820191906000526020600020905b815481529060010190602001808311610f7757829003601f168201915b5050505050908060070154905088565b336000809054906101000a900473ffffffffffffffffffffffffffffffffffffffff1673ffffffffffffffffffffffffffffffffffffffff168173ffffffffffffffffffffffffffffffffffffffff16141515611036576040517f08c379a000000000000000000000000000000000000000000000000000000000815260040161102d90611dd6565b60405180910390fd5b87600160008b73ffffffffffffffffffffffffffffffffffffffff1673ffffffffffffffffffffffffffffffffffffffff168152602001908152602001600020600101908051906020019061108c929190611730565b5086600160008b73ffffffffffffffffffffffffffffffffffffffff1673ffffffffffffffffffffffffffffffffffffffff16815260200190815260200160002060020190805190602001906110e3929190611730565b5085600160008b73ffffffffffffffffffffffffffffffffffffffff1673ffffffffffffffffffffffffffffffffffffffff168152602001908152602001600020600301908051906020019061113a929190611730565b5084600160008b73ffffffffffffffffffffffffffffffffffffffff1673ffffffffffffffffffffffffffffffffffffffff1681526020019081526020016000206004019080519060200190611191929190611730565b5083600160008b73ffffffffffffffffffffffffffffffffffffffff1673ffffffffffffffffffffffffffffffffffffffff16815260200190815260200160002060050190805190602001906111e8929190611730565b5082600160008b73ffffffffffffffffffffffffffffffffffffffff1673ffffffffffffffffffffffffffffffffffffffff168152602001908152602001600020600601908051906020019061123f929190611730565b5081600160008b73ffffffffffffffffffffffffffffffffffffffff1673ffffffffffffffffffffffffffffffffffffffff168152602001908152602001600020600701819055506002610100604051908101604052808b73ffffffffffffffffffffffffffffffffffffffff1681526020018a8152602001898152602001888152602001878152602001868152602001858152602001848152509080600181540180825580915050906001820390600052602060002090600802016000909192909190915060008201518160000160006101000a81548173ffffffffffffffffffffffffffffffffffffffff021916908373ffffffffffffffffffffffffffffffffffffffff16021790555060208201518160010190805190602001906113689291906117b0565b5060408201518160020190805190602001906113859291906117b0565b5060608201518160030190805190602001906113a29291906117b0565b5060808201518160040190805190602001906113bf9291906117b0565b5060a08201518160050190805190602001906113dc9291906117b0565b5060c08201518160060190805190602001906113f99291906117b0565b5060e08201518160070155505050505050505050505050565b60608060608060608060006002805490506040519080825280602002602001820160405280156114515781602001602082028038833980820191505090505b50935060028054905060405190808252806020026020018201604052801561148d57816020015b60608152602001906001900390816114785790505b5092506002805490506040519080825280602002602001820160405280156114c957816020015b60608152602001906001900390816114b45790505b509150600090505b60028054905081101561171e576002818154811015156114ed57fe5b906000526020600020906008020160000160009054906101000a900473ffffffffffffffffffffffffffffffffffffffff16848281518110151561152d57fe5b9060200190602002019073ffffffffffffffffffffffffffffffffffffffff16908173ffffffffffffffffffffffffffffffffffffffff168152505060028181548110151561157857fe5b90600052602060002090600802016001018054600181600116156101000203166002900480601f01602080910402602001604051908101604052809291908181526020018280546001816001161561010002031660029004801561161d5780601f106115f25761010080835404028352916020019161161d565b820191906000526020600020905b81548152906001019060200180831161160057829003601f168201915b5050505050838281518110151561163057fe5b9060200190602002018190525060028181548110151561164c57fe5b90600052602060002090600802016002018054600181600116156101000203166002900480601f0160208091040260200160405190810160405280929190818152602001828054600181600116156101000203166002900480156116f15780601f106116c6576101008083540402835291602001916116f1565b820191906000526020600020905b8154815290600101906020018083116116d457829003601f168201915b5050505050828281518110151561170457fe5b9060200190602002018190525080806001019150506114d1565b83838396509650965050505050909192565b828054600181600116156101000203166002900490600052602060002090601f016020900481019282601f1061177157805160ff191683800117855561179f565b8280016001018555821561179f579182015b8281111561179e578251825591602001919060010190611783565b5b5090506117ac9190611830565b5090565b828054600181600116156101000203166002900490600052602060002090601f016020900481019282601f106117f157805160ff191683800117855561181f565b8280016001018555821561181f579182015b8281111561181e578251825591602001919060010190611803565b5b50905061182c9190611830565b5090565b61185291905b8082111561184e576000816000905550600101611836565b5090565b90565b60006118618235611ef3565b905092915050565b600082601f830112151561187c57600080fd5b813561188f61188a82611e23565b611df6565b915080825260208301602083018583830111156118ab57600080fd5b6118b6838284611f1d565b50505092915050565b60006118cb8235611f13565b905092915050565b6000602082840312156118e557600080fd5b60006118f384828501611855565b91505092915050565b600080600080600080600080610100898b03121561191957600080fd5b60006119278b828c01611855565b985050602089013567ffffffffffffffff81111561194457600080fd5b6119508b828c01611869565b975050604089013567ffffffffffffffff81111561196d57600080fd5b6119798b828c01611869565b965050606089013567ffffffffffffffff81111561199657600080fd5b6119a28b828c01611869565b955050608089013567ffffffffffffffff8111156119bf57600080fd5b6119cb8b828c01611869565b94505060a089013567ffffffffffffffff8111156119e857600080fd5b6119f48b828c01611869565b93505060c089013567ffffffffffffffff811115611a1157600080fd5b611a1d8b828c01611869565b92505060e0611a2e8b828c016118bf565b9150509295985092959890939650565b600060208284031215611a5057600080fd5b6000611a5e848285016118bf565b91505092915050565b611a7081611ec9565b82525050565b6000611a8182611e76565b808452602084019350611a9383611e4f565b60005b82811015611ac557611aa9868351611a67565b611ab282611ea2565b9150602086019550600181019050611a96565b50849250505092915050565b6000611adc82611e81565b80845260208401935083602082028501611af585611e5c565b60005b84811015611b2e578383038852611b10838351611b9a565b9250611b1b82611eaf565b9150602088019750600181019050611af8565b508196508694505050505092915050565b6000611b4a82611e8c565b808452602084019350611b5c83611e69565b60005b82811015611b8e57611b72868351611c2d565b611b7b82611ebc565b9150602086019550600181019050611b5f565b50849250505092915050565b6000611ba582611e97565b808452611bb9816020860160208601611f2c565b611bc281611f5f565b602085010191505092915050565b6000602c82527f4f6e6c792074686520636f6d70616e792063616e206d616b652074686973206660208301527f756e6374696f6e2063616c6c00000000000000000000000000000000000000006040830152606082019050919050565b611c3681611ee9565b82525050565b6000602082019050611c516000830184611a67565b92915050565b600061010082019050611c6d600083018b611a67565b8181036020830152611c7f818a611b9a565b90508181036040830152611c938189611b9a565b90508181036060830152611ca78188611b9a565b90508181036080830152611cbb8187611b9a565b905081810360a0830152611ccf8186611b9a565b905081810360c0830152611ce38185611b9a565b9050611cf260e0830184611c2d565b9998505050505050505050565b60006060820190508181036000830152611d198186611a76565b90508181036020830152611d2d8185611ad1565b90508181036040830152611d418184611ad1565b9050949350505050565b600060c0820190508181036000830152611d658189611a76565b90508181036020830152611d798188611ad1565b90508181036040830152611d8d8187611ad1565b90508181036060830152611da18186611ad1565b90508181036080830152611db58185611ad1565b905081810360a0830152611dc98184611b3f565b9050979650505050505050565b60006020820190508181036000830152611def81611bd0565b9050919050565b6000604051905081810181811067ffffffffffffffff82111715611e1957600080fd5b8060405250919050565b600067ffffffffffffffff821115611e3a57600080fd5b601f19601f8301169050602081019050919050565b6000602082019050919050565b6000602082019050919050565b6000602082019050919050565b600081519050919050565b600081519050919050565b600081519050919050565b600081519050919050565b6000602082019050919050565b6000602082019050919050565b6000602082019050919050565b600073ffffffffffffffffffffffffffffffffffffffff82169050919050565b6000819050919050565b600073ffffffffffffffffffffffffffffffffffffffff82169050919050565b6000819050919050565b82818337600083830152505050565b60005b83811015611f4a578082015181840152602081019050611f2f565b83811115611f59576000848401525b50505050565b6000601f19601f83011690509190505600a265627a7a72305820b9e2e4cbaffd2712443a5029f31b9eaeacf9d3fae87c06fc2ca430fd566e5c996c6578706572696d656e74616cf50037",
  "source": "pragma solidity ^0.4.23;\npragma experimental ABIEncoderV2;\n\ncontract ClinicalTest {\n    address public company;\n\n    struct ClinicalTest {\n        address companyAddress;\n        string subject;\n        string title;\n        string gender;\n        string age;\n        string bmi;\n        string smoking;\n        uint volume;\n    }\n\n    mapping(address => ClinicalTest) public clinicalTests;\n    ClinicalTest[] public clinicalTestList;\n\n    constructor() public {\n        company = msg.sender;\n    }\n\n    modifier onlyAdmin(address addr) {\n        require(addr == company, \"Only the company can make this function call\");\n        _;\n    }\n\n    function getClinicalTests()\n        public\n        view\n        returns (\n            address[],  // companyAddress\n            string[],   // subject\n            string[]   // title\n        )\n    {\n        address[] memory companyAddress = new address[](clinicalTestList.length);\n        string[] memory subject = new string[](clinicalTestList.length);\n        string[] memory title = new string[](clinicalTestList.length);\n\n        for (uint i = 0; i < clinicalTestList.length; i++) {\n            companyAddress[i] = clinicalTestList[i].companyAddress;\n            subject[i] = clinicalTestList[i].subject;\n            title[i] = clinicalTestList[i].title;\n        }\n\n        return (companyAddress, subject, title);\n    }\n\n    function getClinicalTestDetails() public view returns (\n        address[],   // companyAddress\n        string[],   // gender\n        string[],   // age\n        string[],   // bmi\n        string[],   // smoking\n        uint[]      // volume\n    ) {\n        address[] memory companyAddress = new address[](clinicalTestList.length);\n        string[] memory gender = new string[](clinicalTestList.length);\n        string[] memory age = new string[](clinicalTestList.length);\n        string[] memory bmi = new string[](clinicalTestList.length);\n        string[] memory smoking = new string[](clinicalTestList.length);\n        uint[]   memory volume = new uint[](clinicalTestList.length);\n\n        for (uint i = 0; i < clinicalTestList.length; i++) {\n            companyAddress[i] = clinicalTestList[i].companyAddress;\n            gender[i] = clinicalTestList[i].gender;\n            age[i] = clinicalTestList[i].age;\n            bmi[i] = clinicalTestList[i].bmi;\n            smoking[i] = clinicalTestList[i].smoking;\n            volume[i] = clinicalTestList[i].volume;\n        }\n\n        return (companyAddress, gender, age, bmi, smoking, volume);\n    }\n\n    function createClinicalTest(\n        address companyAddress,\n        string subject,\n        string title,\n        string gender,\n        string age,\n        string bmi,\n        string smoking,\n        uint volume\n    ) public onlyAdmin(msg.sender)\n    {\n        clinicalTests[companyAddress].subject = subject;\n        clinicalTests[companyAddress].title = title;\n        clinicalTests[companyAddress].gender = gender;\n        clinicalTests[companyAddress].age = age;\n        clinicalTests[companyAddress].bmi = bmi;\n        clinicalTests[companyAddress].smoking = smoking;\n        clinicalTests[companyAddress].volume = volume;\n\n        clinicalTestList.push(ClinicalTest({\n            companyAddress: companyAddress,\n            subject: subject,\n            title: title,\n            gender: gender,\n            age: age,\n            bmi: bmi,\n            smoking: smoking,\n            volume: volume\n        }));\n    }\n}",
  "sourcePath": "/Users/paulsoh/Workspace/arena/smartcontracts/contracts/ClinicalTest.sol",
  "compiler": {
    "name": "solc",
    "version": "0.4.24+commit.e67f0147.Emscripten.clang"
  },
  "schemaVersion": "2.0.1",
  "updatedAt": "2018-09-15T05:26:12.513Z"
}