{
  "contractName": "ClinicalTest",
  "abi": [
    {
      "constant": true,
      "inputs": [
        {
          "name": "",
          "type": "address"
        }
      ],
      "name": "clinicalTests",
      "outputs": [
        {
          "name": "companyAddress",
          "type": "address"
        },
        {
          "name": "subject",
          "type": "string"
        },
        {
          "name": "title",
          "type": "string"
        },
        {
          "name": "gender",
          "type": "string"
        },
        {
          "name": "age",
          "type": "string"
        },
        {
          "name": "bmi",
          "type": "string"
        },
        {
          "name": "smoking",
          "type": "string"
        },
        {
          "name": "volume",
          "type": "uint256"
        },
        {
          "name": "disease",
          "type": "string"
        }
      ],
      "payable": false,
      "stateMutability": "view",
      "type": "function"
    },
    {
      "constant": true,
      "inputs": [],
      "name": "company",
      "outputs": [
        {
          "name": "",
          "type": "address"
        }
      ],
      "payable": false,
      "stateMutability": "view",
      "type": "function"
    },
    {
      "constant": true,
      "inputs": [
        {
          "name": "",
          "type": "uint256"
        }
      ],
      "name": "clinicalTestList",
      "outputs": [
        {
          "name": "companyAddress",
          "type": "address"
        },
        {
          "name": "subject",
          "type": "string"
        },
        {
          "name": "title",
          "type": "string"
        },
        {
          "name": "gender",
          "type": "string"
        },
        {
          "name": "age",
          "type": "string"
        },
        {
          "name": "bmi",
          "type": "string"
        },
        {
          "name": "smoking",
          "type": "string"
        },
        {
          "name": "volume",
          "type": "uint256"
        },
        {
          "name": "disease",
          "type": "string"
        }
      ],
      "payable": false,
      "stateMutability": "view",
      "type": "function"
    },
    {
      "inputs": [],
      "payable": false,
      "stateMutability": "nonpayable",
      "type": "constructor"
    },
    {
      "constant": true,
      "inputs": [],
      "name": "getClinicalTests",
      "outputs": [
        {
          "name": "",
          "type": "address[]"
        },
        {
          "name": "",
          "type": "string[]"
        },
        {
          "name": "",
          "type": "string[]"
        }
      ],
      "payable": false,
      "stateMutability": "view",
      "type": "function"
    },
    {
      "constant": true,
      "inputs": [],
      "name": "getClinicalTestDetails",
      "outputs": [
        {
          "name": "",
          "type": "address[]"
        },
        {
          "name": "",
          "type": "string[]"
        },
        {
          "name": "",
          "type": "string[]"
        },
        {
          "name": "",
          "type": "string[]"
        },
        {
          "name": "",
          "type": "string[]"
        },
        {
          "name": "",
          "type": "uint256[]"
        },
        {
          "name": "",
          "type": "string[]"
        }
      ],
      "payable": false,
      "stateMutability": "view",
      "type": "function"
    },
    {
      "constant": false,
      "inputs": [
        {
          "name": "companyAddress",
          "type": "address"
        },
        {
          "name": "subject",
          "type": "string"
        },
        {
          "name": "title",
          "type": "string"
        },
        {
          "name": "gender",
          "type": "string"
        },
        {
          "name": "age",
          "type": "string"
        },
        {
          "name": "bmi",
          "type": "string"
        },
        {
          "name": "smoking",
          "type": "string"
        },
        {
          "name": "volume",
          "type": "uint256"
        },
        {
          "name": "disease",
          "type": "string"
        }
      ],
      "name": "createClinicalTest",
      "outputs": [],
      "payable": false,
      "stateMutability": "nonpayable",
      "type": "function"
    }
  ],
  "bytecode": "0x608060405234801561001057600080fd5b50336000806101000a81548173ffffffffffffffffffffffffffffffffffffffff021916908373ffffffffffffffffffffffffffffffffffffffff1602179055506122d4806100606000396000f300608060405260043610610078576000357c0100000000000000000000000000000000000000000000000000000000900463ffffffff1680630442dac31461007d578063321f42c1146100ae57806340e1c733146100f35780636904c94d1461011c578063be76eb2614610147578063f9abb2361461018c575b600080fd5b34801561008957600080fd5b506100926101b9565b6040516100a59796959493929190612060565b60405180910390f35b3480156100ba57600080fd5b506100d560048036036100d09190810190611ba6565b61089b565b6040516100ea99989796959493929190611f56565b60405180910390f35b3480156100ff57600080fd5b5061011a60048036036101159190810190611bcf565b610d31565b005b34801561012857600080fd5b5061013161121b565b60405161013e9190611f3b565b60405180910390f35b34801561015357600080fd5b5061016e60048036036101699190810190611d3d565b611240565b60405161018399989796959493929190611f56565b60405180910390f35b34801561019857600080fd5b506101a16116e5565b6040516101b093929190612014565b60405180910390f35b60608060608060608060608060608060608060608060006002805490506040519080825280602002602001820160405280156102045781602001602082028038833980820191505090505b50975060028054905060405190808252806020026020018201604052801561024057816020015b606081526020019060019003908161022b5790505b50965060028054905060405190808252806020026020018201604052801561027c57816020015b60608152602001906001900390816102675790505b5095506002805490506040519080825280602002602001820160405280156102b857816020015b60608152602001906001900390816102a35790505b5094506002805490506040519080825280602002602001820160405280156102f457816020015b60608152602001906001900390816102df5790505b50935060028054905060405190808252806020026020018201604052801561032b5781602001602082028038833980820191505090505b50925060028054905060405190808252806020026020018201604052801561036757816020015b60608152602001906001900390816103525790505b509150600090505b6002805490508110156108755760028181548110151561038b57fe5b906000526020600020906009020160000160009054906101000a900473ffffffffffffffffffffffffffffffffffffffff1688828151811015156103cb57fe5b9060200190602002019073ffffffffffffffffffffffffffffffffffffffff16908173ffffffffffffffffffffffffffffffffffffffff168152505060028181548110151561041657fe5b90600052602060002090600902016003018054600181600116156101000203166002900480601f0160208091040260200160405190810160405280929190818152602001828054600181600116156101000203166002900480156104bb5780601f10610490576101008083540402835291602001916104bb565b820191906000526020600020905b81548152906001019060200180831161049e57829003601f168201915b505050505087828151811015156104ce57fe5b906020019060200201819052506002818154811015156104ea57fe5b90600052602060002090600902016004018054600181600116156101000203166002900480601f01602080910402602001604051908101604052809291908181526020018280546001816001161561010002031660029004801561058f5780601f106105645761010080835404028352916020019161058f565b820191906000526020600020905b81548152906001019060200180831161057257829003601f168201915b505050505086828151811015156105a257fe5b906020019060200201819052506002818154811015156105be57fe5b90600052602060002090600902016005018054600181600116156101000203166002900480601f0160208091040260200160405190810160405280929190818152602001828054600181600116156101000203166002900480156106635780601f1061063857610100808354040283529160200191610663565b820191906000526020600020905b81548152906001019060200180831161064657829003601f168201915b5050505050858281518110151561067657fe5b9060200190602002018190525060028181548110151561069257fe5b90600052602060002090600902016006018054600181600116156101000203166002900480601f0160208091040260200160405190810160405280929190818152602001828054600181600116156101000203166002900480156107375780601f1061070c57610100808354040283529160200191610737565b820191906000526020600020905b81548152906001019060200180831161071a57829003601f168201915b5050505050848281518110151561074a57fe5b9060200190602002018190525060028181548110151561076657fe5b906000526020600020906009020160070154838281518110151561078657fe5b90602001906020020181815250506002818154811015156107a357fe5b90600052602060002090600902016008018054600181600116156101000203166002900480601f0160208091040260200160405190810160405280929190818152602001828054600181600116156101000203166002900480156108485780601f1061081d57610100808354040283529160200191610848565b820191906000526020600020905b81548152906001019060200180831161082b57829003601f168201915b5050505050828281518110151561085b57fe5b90602001906020020181905250808060010191505061036f565b878787878787879e509e509e509e509e509e509e50505050505050505090919293949596565b60016020528060005260406000206000915090508060000160009054906101000a900473ffffffffffffffffffffffffffffffffffffffff1690806001018054600181600116156101000203166002900480601f01602080910402602001604051908101604052809291908181526020018280546001816001161561010002031660029004801561096d5780601f106109425761010080835404028352916020019161096d565b820191906000526020600020905b81548152906001019060200180831161095057829003601f168201915b505050505090806002018054600181600116156101000203166002900480601f016020809104026020016040519081016040528092919081815260200182805460018160011615610100020316600290048015610a0b5780601f106109e057610100808354040283529160200191610a0b565b820191906000526020600020905b8154815290600101906020018083116109ee57829003601f168201915b505050505090806003018054600181600116156101000203166002900480601f016020809104026020016040519081016040528092919081815260200182805460018160011615610100020316600290048015610aa95780601f10610a7e57610100808354040283529160200191610aa9565b820191906000526020600020905b815481529060010190602001808311610a8c57829003601f168201915b505050505090806004018054600181600116156101000203166002900480601f016020809104026020016040519081016040528092919081815260200182805460018160011615610100020316600290048015610b475780601f10610b1c57610100808354040283529160200191610b47565b820191906000526020600020905b815481529060010190602001808311610b2a57829003601f168201915b505050505090806005018054600181600116156101000203166002900480601f016020809104026020016040519081016040528092919081815260200182805460018160011615610100020316600290048015610be55780601f10610bba57610100808354040283529160200191610be5565b820191906000526020600020905b815481529060010190602001808311610bc857829003601f168201915b505050505090806006018054600181600116156101000203166002900480601f016020809104026020016040519081016040528092919081815260200182805460018160011615610100020316600290048015610c835780601f10610c5857610100808354040283529160200191610c83565b820191906000526020600020905b815481529060010190602001808311610c6657829003601f168201915b505050505090806007015490806008018054600181600116156101000203166002900480601f016020809104026020016040519081016040528092919081815260200182805460018160011615610100020316600290048015610d275780601f10610cfc57610100808354040283529160200191610d27565b820191906000526020600020905b815481529060010190602001808311610d0a57829003601f168201915b5050505050905089565b336000809054906101000a900473ffffffffffffffffffffffffffffffffffffffff1673ffffffffffffffffffffffffffffffffffffffff168173ffffffffffffffffffffffffffffffffffffffff16141515610dc3576040517f08c379a0000000000000000000000000000000000000000000000000000000008152600401610dba90612100565b60405180910390fd5b88600160008c73ffffffffffffffffffffffffffffffffffffffff1673ffffffffffffffffffffffffffffffffffffffff1681526020019081526020016000206001019080519060200190610e19929190611a03565b5087600160008c73ffffffffffffffffffffffffffffffffffffffff1673ffffffffffffffffffffffffffffffffffffffff1681526020019081526020016000206002019080519060200190610e70929190611a03565b5086600160008c73ffffffffffffffffffffffffffffffffffffffff1673ffffffffffffffffffffffffffffffffffffffff1681526020019081526020016000206003019080519060200190610ec7929190611a03565b5085600160008c73ffffffffffffffffffffffffffffffffffffffff1673ffffffffffffffffffffffffffffffffffffffff1681526020019081526020016000206004019080519060200190610f1e929190611a03565b5084600160008c73ffffffffffffffffffffffffffffffffffffffff1673ffffffffffffffffffffffffffffffffffffffff1681526020019081526020016000206005019080519060200190610f75929190611a03565b5083600160008c73ffffffffffffffffffffffffffffffffffffffff1673ffffffffffffffffffffffffffffffffffffffff1681526020019081526020016000206006019080519060200190610fcc929190611a03565b5082600160008c73ffffffffffffffffffffffffffffffffffffffff1673ffffffffffffffffffffffffffffffffffffffff1681526020019081526020016000206007018190555081600160008c73ffffffffffffffffffffffffffffffffffffffff1673ffffffffffffffffffffffffffffffffffffffff168152602001908152602001600020600801908051906020019061106a929190611a03565b506002610120604051908101604052808c73ffffffffffffffffffffffffffffffffffffffff1681526020018b81526020018a8152602001898152602001888152602001878152602001868152602001858152602001848152509080600181540180825580915050906001820390600052602060002090600902016000909192909190915060008201518160000160006101000a81548173ffffffffffffffffffffffffffffffffffffffff021916908373ffffffffffffffffffffffffffffffffffffffff1602179055506020820151816001019080519060200190611152929190611a83565b50604082015181600201908051906020019061116f929190611a83565b50606082015181600301908051906020019061118c929190611a83565b5060808201518160040190805190602001906111a9929190611a83565b5060a08201518160050190805190602001906111c6929190611a83565b5060c08201518160060190805190602001906111e3929190611a83565b5060e0820151816007015561010082015181600801908051906020019061120b929190611a83565b5050505050505050505050505050565b6000809054906101000a900473ffffffffffffffffffffffffffffffffffffffff1681565b60028181548110151561124f57fe5b90600052602060002090600902016000915090508060000160009054906101000a900473ffffffffffffffffffffffffffffffffffffffff1690806001018054600181600116156101000203166002900480601f0160208091040260200160405190810160405280929190818152602001828054600181600116156101000203166002900480156113215780601f106112f657610100808354040283529160200191611321565b820191906000526020600020905b81548152906001019060200180831161130457829003601f168201915b505050505090806002018054600181600116156101000203166002900480601f0160208091040260200160405190810160405280929190818152602001828054600181600116156101000203166002900480156113bf5780601f10611394576101008083540402835291602001916113bf565b820191906000526020600020905b8154815290600101906020018083116113a257829003601f168201915b505050505090806003018054600181600116156101000203166002900480601f01602080910402602001604051908101604052809291908181526020018280546001816001161561010002031660029004801561145d5780601f106114325761010080835404028352916020019161145d565b820191906000526020600020905b81548152906001019060200180831161144057829003601f168201915b505050505090806004018054600181600116156101000203166002900480601f0160208091040260200160405190810160405280929190818152602001828054600181600116156101000203166002900480156114fb5780601f106114d0576101008083540402835291602001916114fb565b820191906000526020600020905b8154815290600101906020018083116114de57829003601f168201915b505050505090806005018054600181600116156101000203166002900480601f0160208091040260200160405190810160405280929190818152602001828054600181600116156101000203166002900480156115995780601f1061156e57610100808354040283529160200191611599565b820191906000526020600020905b81548152906001019060200180831161157c57829003601f168201915b505050505090806006018054600181600116156101000203166002900480601f0160208091040260200160405190810160405280929190818152602001828054600181600116156101000203166002900480156116375780601f1061160c57610100808354040283529160200191611637565b820191906000526020600020905b81548152906001019060200180831161161a57829003601f168201915b505050505090806007015490806008018054600181600116156101000203166002900480601f0160208091040260200160405190810160405280929190818152602001828054600181600116156101000203166002900480156116db5780601f106116b0576101008083540402835291602001916116db565b820191906000526020600020905b8154815290600101906020018083116116be57829003601f168201915b5050505050905089565b60608060608060608060006002805490506040519080825280602002602001820160405280156117245781602001602082028038833980820191505090505b50935060028054905060405190808252806020026020018201604052801561176057816020015b606081526020019060019003908161174b5790505b50925060028054905060405190808252806020026020018201604052801561179c57816020015b60608152602001906001900390816117875790505b509150600090505b6002805490508110156119f1576002818154811015156117c057fe5b906000526020600020906009020160000160009054906101000a900473ffffffffffffffffffffffffffffffffffffffff16848281518110151561180057fe5b9060200190602002019073ffffffffffffffffffffffffffffffffffffffff16908173ffffffffffffffffffffffffffffffffffffffff168152505060028181548110151561184b57fe5b90600052602060002090600902016001018054600181600116156101000203166002900480601f0160208091040260200160405190810160405280929190818152602001828054600181600116156101000203166002900480156118f05780601f106118c5576101008083540402835291602001916118f0565b820191906000526020600020905b8154815290600101906020018083116118d357829003601f168201915b5050505050838281518110151561190357fe5b9060200190602002018190525060028181548110151561191f57fe5b90600052602060002090600902016002018054600181600116156101000203166002900480601f0160208091040260200160405190810160405280929190818152602001828054600181600116156101000203166002900480156119c45780601f10611999576101008083540402835291602001916119c4565b820191906000526020600020905b8154815290600101906020018083116119a757829003601f168201915b505050505082828151811015156119d757fe5b9060200190602002018190525080806001019150506117a4565b83838396509650965050505050909192565b828054600181600116156101000203166002900490600052602060002090601f016020900481019282601f10611a4457805160ff1916838001178555611a72565b82800160010185558215611a72579182015b82811115611a71578251825591602001919060010190611a56565b5b509050611a7f9190611b03565b5090565b828054600181600116156101000203166002900490600052602060002090601f016020900481019282601f10611ac457805160ff1916838001178555611af2565b82800160010185558215611af2579182015b82811115611af1578251825591602001919060010190611ad6565b5b509050611aff9190611b03565b5090565b611b2591905b80821115611b21576000816000905550600101611b09565b5090565b90565b6000611b34823561221d565b905092915050565b600082601f8301121515611b4f57600080fd5b8135611b62611b5d8261214d565b612120565b91508082526020830160208301858383011115611b7e57600080fd5b611b89838284612247565b50505092915050565b6000611b9e823561223d565b905092915050565b600060208284031215611bb857600080fd5b6000611bc684828501611b28565b91505092915050565b60008060008060008060008060006101208a8c031215611bee57600080fd5b6000611bfc8c828d01611b28565b99505060208a013567ffffffffffffffff811115611c1957600080fd5b611c258c828d01611b3c565b98505060408a013567ffffffffffffffff811115611c4257600080fd5b611c4e8c828d01611b3c565b97505060608a013567ffffffffffffffff811115611c6b57600080fd5b611c778c828d01611b3c565b96505060808a013567ffffffffffffffff811115611c9457600080fd5b611ca08c828d01611b3c565b95505060a08a013567ffffffffffffffff811115611cbd57600080fd5b611cc98c828d01611b3c565b94505060c08a013567ffffffffffffffff811115611ce657600080fd5b611cf28c828d01611b3c565b93505060e0611d038c828d01611b92565b9250506101008a013567ffffffffffffffff811115611d2157600080fd5b611d2d8c828d01611b3c565b9150509295985092959850929598565b600060208284031215611d4f57600080fd5b6000611d5d84828501611b92565b91505092915050565b611d6f816121f3565b82525050565b6000611d80826121a0565b808452602084019350611d9283612179565b60005b82811015611dc457611da8868351611d66565b611db1826121cc565b9150602086019550600181019050611d95565b50849250505092915050565b6000611ddb826121ab565b80845260208401935083602082028501611df485612186565b60005b84811015611e2d578383038852611e0f838351611e99565b9250611e1a826121d9565b9150602088019750600181019050611df7565b508196508694505050505092915050565b6000611e49826121b6565b808452602084019350611e5b83612193565b60005b82811015611e8d57611e71868351611f2c565b611e7a826121e6565b9150602086019550600181019050611e5e565b50849250505092915050565b6000611ea4826121c1565b808452611eb8816020860160208601612256565b611ec181612289565b602085010191505092915050565b6000602c82527f4f6e6c792074686520636f6d70616e792063616e206d616b652074686973206660208301527f756e6374696f6e2063616c6c00000000000000000000000000000000000000006040830152606082019050919050565b611f3581612213565b82525050565b6000602082019050611f506000830184611d66565b92915050565b600061012082019050611f6c600083018c611d66565b8181036020830152611f7e818b611e99565b90508181036040830152611f92818a611e99565b90508181036060830152611fa68189611e99565b90508181036080830152611fba8188611e99565b905081810360a0830152611fce8187611e99565b905081810360c0830152611fe28186611e99565b9050611ff160e0830185611f2c565b8181036101008301526120048184611e99565b90509a9950505050505050505050565b6000606082019050818103600083015261202e8186611d75565b905081810360208301526120428185611dd0565b905081810360408301526120568184611dd0565b9050949350505050565b600060e082019050818103600083015261207a818a611d75565b9050818103602083015261208e8189611dd0565b905081810360408301526120a28188611dd0565b905081810360608301526120b68187611dd0565b905081810360808301526120ca8186611dd0565b905081810360a08301526120de8185611e3e565b905081810360c08301526120f28184611dd0565b905098975050505050505050565b6000602082019050818103600083015261211981611ecf565b9050919050565b6000604051905081810181811067ffffffffffffffff8211171561214357600080fd5b8060405250919050565b600067ffffffffffffffff82111561216457600080fd5b601f19601f8301169050602081019050919050565b6000602082019050919050565b6000602082019050919050565b6000602082019050919050565b600081519050919050565b600081519050919050565b600081519050919050565b600081519050919050565b6000602082019050919050565b6000602082019050919050565b6000602082019050919050565b600073ffffffffffffffffffffffffffffffffffffffff82169050919050565b6000819050919050565b600073ffffffffffffffffffffffffffffffffffffffff82169050919050565b6000819050919050565b82818337600083830152505050565b60005b83811015612274578082015181840152602081019050612259565b83811115612283576000848401525b50505050565b6000601f19601f83011690509190505600a265627a7a723058203a79a39ba248e6da1c7a10661f5276077750ab6d759e9401835ba4cb39a4c5386c6578706572696d656e74616cf50037",
  "source": "pragma solidity ^0.4.23;\npragma experimental ABIEncoderV2;\n\ncontract ClinicalTest {\n    address public company;\n\n    struct ClinicalTest {\n        address companyAddress;\n        string subject;\n        string title;\n        string gender;\n        string age;\n        string bmi;\n        string smoking;\n        uint volume;\n        string disease;\n    }\n\n    mapping(address => ClinicalTest) public clinicalTests;\n    ClinicalTest[] public clinicalTestList;\n\n    constructor() public {\n        company = msg.sender;\n    }\n\n    modifier onlyAdmin(address addr) {\n        require(addr == company, \"Only the company can make this function call\");\n        _;\n    }\n\n    function getClinicalTests()\n        public\n        view\n        returns (\n            address[],  // companyAddress\n            string[],   // subject\n            string[]   // title\n        )\n    {\n        address[] memory companyAddress = new address[](clinicalTestList.length);\n        string[] memory subject = new string[](clinicalTestList.length);\n        string[] memory title = new string[](clinicalTestList.length);\n\n        for (uint i = 0; i < clinicalTestList.length; i++) {\n            companyAddress[i] = clinicalTestList[i].companyAddress;\n            subject[i] = clinicalTestList[i].subject;\n            title[i] = clinicalTestList[i].title;\n        }\n\n        return (companyAddress, subject, title);\n    }\n\n    function getClinicalTestDetails() public view returns (\n        address[],  // companyAddress\n        string[],   // gender\n        string[],   // age\n        string[],   // bmi\n        string[],   // smoking\n        uint[],     // volume\n        string[]    // disease\n    ) {\n        address[] memory companyAddress = new address[](clinicalTestList.length);\n        string[] memory gender = new string[](clinicalTestList.length);\n        string[] memory age = new string[](clinicalTestList.length);\n        string[] memory bmi = new string[](clinicalTestList.length);\n        string[] memory smoking = new string[](clinicalTestList.length);\n        uint[]   memory volume = new uint[](clinicalTestList.length);\n        string[] memory disease = new string[](clinicalTestList.length);\n\n        for (uint i = 0; i < clinicalTestList.length; i++) {\n            companyAddress[i] = clinicalTestList[i].companyAddress;\n            gender[i] = clinicalTestList[i].gender;\n            age[i] = clinicalTestList[i].age;\n            bmi[i] = clinicalTestList[i].bmi;\n            smoking[i] = clinicalTestList[i].smoking;\n            volume[i] = clinicalTestList[i].volume;\n            disease[i] = clinicalTestList[i].disease;\n        }\n\n        return (companyAddress, gender, age, bmi, smoking, volume, disease);\n    }\n\n    function createClinicalTest(\n        address companyAddress,\n        string subject,\n        string title,\n        string gender,\n        string age,\n        string bmi,\n        string smoking,\n        uint volume,\n        string disease\n    ) public onlyAdmin(msg.sender)\n    {\n        clinicalTests[companyAddress].subject = subject;\n        clinicalTests[companyAddress].title = title;\n        clinicalTests[companyAddress].gender = gender;\n        clinicalTests[companyAddress].age = age;\n        clinicalTests[companyAddress].bmi = bmi;\n        clinicalTests[companyAddress].smoking = smoking;\n        clinicalTests[companyAddress].volume = volume;\n        clinicalTests[companyAddress].disease = disease;\n\n        clinicalTestList.push(ClinicalTest({\n            companyAddress: companyAddress,\n            subject: subject,\n            title: title,\n            gender: gender,\n            age: age,\n            bmi: bmi,\n            smoking: smoking,\n            volume: volume,\n            disease: disease\n        }));\n    }\n}",
  "sourcePath": "/Users/paulsoh/Workspace/arena/smartcontracts/contracts/ClinicalTest.sol",
  "compiler": {
    "name": "solc",
    "version": "0.4.24+commit.e67f0147.Emscripten.clang"
  },
  "schemaVersion": "2.0.1",
  "updatedAt": "2018-09-15T09:23:13.435Z"
}