{
  "contractName": "PatientRegistrar",
  "abi": [
    {
      "constant": true,
      "inputs": [
        {
          "name": "",
          "type": "address"
        }
      ],
      "name": "patients",
      "outputs": [
        {
          "name": "addr",
          "type": "address"
        },
        {
          "name": "email",
          "type": "string"
        },
        {
          "name": "gender",
          "type": "string"
        },
        {
          "name": "birthday",
          "type": "uint256"
        },
        {
          "name": "isSmoker",
          "type": "bool"
        },
        {
          "name": "height",
          "type": "uint256"
        },
        {
          "name": "weight",
          "type": "uint256"
        },
        {
          "name": "drugs",
          "type": "string"
        },
        {
          "name": "diseases",
          "type": "string"
        },
        {
          "name": "geneticConditions",
          "type": "string"
        },
        {
          "name": "familyHistory",
          "type": "string"
        }
      ],
      "payable": false,
      "stateMutability": "view",
      "type": "function"
    },
    {
      "constant": true,
      "inputs": [
        {
          "name": "",
          "type": "uint256"
        }
      ],
      "name": "patientList",
      "outputs": [
        {
          "name": "addr",
          "type": "address"
        },
        {
          "name": "email",
          "type": "string"
        },
        {
          "name": "gender",
          "type": "string"
        },
        {
          "name": "birthday",
          "type": "uint256"
        },
        {
          "name": "isSmoker",
          "type": "bool"
        },
        {
          "name": "height",
          "type": "uint256"
        },
        {
          "name": "weight",
          "type": "uint256"
        },
        {
          "name": "drugs",
          "type": "string"
        },
        {
          "name": "diseases",
          "type": "string"
        },
        {
          "name": "geneticConditions",
          "type": "string"
        },
        {
          "name": "familyHistory",
          "type": "string"
        }
      ],
      "payable": false,
      "stateMutability": "view",
      "type": "function"
    },
    {
      "constant": true,
      "inputs": [],
      "name": "admin",
      "outputs": [
        {
          "name": "",
          "type": "address"
        }
      ],
      "payable": false,
      "stateMutability": "view",
      "type": "function"
    },
    {
      "inputs": [],
      "payable": false,
      "stateMutability": "nonpayable",
      "type": "constructor"
    },
    {
      "constant": true,
      "inputs": [],
      "name": "viewPatientsDetail",
      "outputs": [
        {
          "name": "",
          "type": "address[]"
        },
        {
          "name": "",
          "type": "string[]"
        },
        {
          "name": "",
          "type": "string[]"
        },
        {
          "name": "",
          "type": "string[]"
        },
        {
          "name": "",
          "type": "string[]"
        }
      ],
      "payable": false,
      "stateMutability": "view",
      "type": "function"
    },
    {
      "constant": true,
      "inputs": [],
      "name": "viewPatients",
      "outputs": [
        {
          "name": "",
          "type": "address[]"
        },
        {
          "name": "",
          "type": "string[]"
        },
        {
          "name": "",
          "type": "string[]"
        },
        {
          "name": "",
          "type": "uint256[]"
        },
        {
          "name": "",
          "type": "bool[]"
        },
        {
          "name": "",
          "type": "uint256[]"
        },
        {
          "name": "",
          "type": "uint256[]"
        }
      ],
      "payable": false,
      "stateMutability": "view",
      "type": "function"
    },
    {
      "constant": false,
      "inputs": [
        {
          "name": "patientAddress",
          "type": "address"
        },
        {
          "name": "email",
          "type": "string"
        },
        {
          "name": "gender",
          "type": "string"
        },
        {
          "name": "birthday",
          "type": "uint256"
        },
        {
          "name": "isSmoker",
          "type": "bool"
        },
        {
          "name": "height",
          "type": "uint256"
        },
        {
          "name": "weight",
          "type": "uint256"
        },
        {
          "name": "drugs",
          "type": "string"
        },
        {
          "name": "diseases",
          "type": "string"
        },
        {
          "name": "geneticConditions",
          "type": "string"
        },
        {
          "name": "familyHistory",
          "type": "string"
        }
      ],
      "name": "registerPatient",
      "outputs": [],
      "payable": false,
      "stateMutability": "nonpayable",
      "type": "function"
    }
  ],
  "bytecode": "0x608060405234801561001057600080fd5b50336000806101000a81548173ffffffffffffffffffffffffffffffffffffffff021916908373ffffffffffffffffffffffffffffffffffffffff160217905550612413806100606000396000f300608060405260043610610078576000357c0100000000000000000000000000000000000000000000000000000000900463ffffffff1680630869cfbc1461007d5780631c13ab61146100c45780632668a7fb146100f5578063babb1d4114610124578063bc2246091461016b578063f851a44014610194575b600080fd5b34801561008957600080fd5b506100a4600480360361009f9190810190611beb565b6101bf565b6040516100bb9b9a99989796959493929190612017565b60405180910390f35b3480156100d057600080fd5b506100d96105d6565b6040516100ec9796959493929190612162565b60405180910390f35b34801561010157600080fd5b5061010a610af7565b60405161011b9594939291906120ec565b60405180910390f35b34801561013057600080fd5b5061014b60048036036101469190810190611d94565b611045565b6040516101629b9a99989796959493929190612017565b60405180910390f35b34801561017757600080fd5b50610192600480360361018d9190810190611c14565b61146b565b005b3480156101a057600080fd5b506101a9611a0f565b6040516101b69190611ffc565b60405180910390f35b60016020528060005260406000206000915090508060000160009054906101000a900473ffffffffffffffffffffffffffffffffffffffff1690806001018054600181600116156101000203166002900480601f0160208091040260200160405190810160405280929190818152602001828054600181600116156101000203166002900480156102915780601f1061026657610100808354040283529160200191610291565b820191906000526020600020905b81548152906001019060200180831161027457829003601f168201915b505050505090806002018054600181600116156101000203166002900480601f01602080910402602001604051908101604052809291908181526020018280546001816001161561010002031660029004801561032f5780601f106103045761010080835404028352916020019161032f565b820191906000526020600020905b81548152906001019060200180831161031257829003601f168201915b5050505050908060030154908060040160009054906101000a900460ff1690806005015490806006015490806007018054600181600116156101000203166002900480601f0160208091040260200160405190810160405280929190818152602001828054600181600116156101000203166002900480156103f25780601f106103c7576101008083540402835291602001916103f2565b820191906000526020600020905b8154815290600101906020018083116103d557829003601f168201915b505050505090806008018054600181600116156101000203166002900480601f0160208091040260200160405190810160405280929190818152602001828054600181600116156101000203166002900480156104905780601f1061046557610100808354040283529160200191610490565b820191906000526020600020905b81548152906001019060200180831161047357829003601f168201915b505050505090806009018054600181600116156101000203166002900480601f01602080910402602001604051908101604052809291908181526020018280546001816001161561010002031660029004801561052e5780601f106105035761010080835404028352916020019161052e565b820191906000526020600020905b81548152906001019060200180831161051157829003601f168201915b50505050509080600a018054600181600116156101000203166002900480601f0160208091040260200160405190810160405280929190818152602001828054600181600116156101000203166002900480156105cc5780601f106105a1576101008083540402835291602001916105cc565b820191906000526020600020905b8154815290600101906020018083116105af57829003601f168201915b505050505090508b565b60608060608060608060608060608060608060608060006002805490506040519080825280602002602001820160405280156106215781602001602082028038833980820191505090505b50975060028054905060405190808252806020026020018201604052801561065d57816020015b60608152602001906001900390816106485790505b50965060028054905060405190808252806020026020018201604052801561069957816020015b60608152602001906001900390816106845790505b5095506002805490506040519080825280602002602001820160405280156106d05781602001602082028038833980820191505090505b5094506002805490506040519080825280602002602001820160405280156107075781602001602082028038833980820191505090505b50935060028054905060405190808252806020026020018201604052801561073e5781602001602082028038833980820191505090505b5092506002805490506040519080825280602002602001820160405280156107755781602001602082028038833980820191505090505b509150600090505b600280549050811015610ad15760028181548110151561079957fe5b90600052602060002090600b020160000160009054906101000a900473ffffffffffffffffffffffffffffffffffffffff1688828151811015156107d957fe5b9060200190602002019073ffffffffffffffffffffffffffffffffffffffff16908173ffffffffffffffffffffffffffffffffffffffff168152505060028181548110151561082457fe5b90600052602060002090600b02016001018054600181600116156101000203166002900480601f0160208091040260200160405190810160405280929190818152602001828054600181600116156101000203166002900480156108c95780601f1061089e576101008083540402835291602001916108c9565b820191906000526020600020905b8154815290600101906020018083116108ac57829003601f168201915b505050505087828151811015156108dc57fe5b906020019060200201819052506002818154811015156108f857fe5b90600052602060002090600b02016002018054600181600116156101000203166002900480601f01602080910402602001604051908101604052809291908181526020018280546001816001161561010002031660029004801561099d5780601f106109725761010080835404028352916020019161099d565b820191906000526020600020905b81548152906001019060200180831161098057829003601f168201915b505050505086828151811015156109b057fe5b906020019060200201819052506002818154811015156109cc57fe5b90600052602060002090600b02016003015485828151811015156109ec57fe5b9060200190602002018181525050600281815481101515610a0957fe5b90600052602060002090600b020160040160009054906101000a900460ff168482815181101515610a3657fe5b9060200190602002019015159081151581525050600281815481101515610a5957fe5b90600052602060002090600b0201600501548382815181101515610a7957fe5b9060200190602002018181525050600281815481101515610a9657fe5b90600052602060002090600b0201600601548282815181101515610ab657fe5b9060200190602002018181525050808060010191505061077d565b878787878787879e509e509e509e509e509e509e50505050505050505090919293949596565b6060806060806060806060806060806000600280549050604051908082528060200260200182016040528015610b3c5781602001602082028038833980820191505090505b509550600280549050604051908082528060200260200182016040528015610b7857816020015b6060815260200190600190039081610b635790505b509450600280549050604051908082528060200260200182016040528015610bb457816020015b6060815260200190600190039081610b9f5790505b509350600280549050604051908082528060200260200182016040528015610bf057816020015b6060815260200190600190039081610bdb5790505b509250600280549050604051908082528060200260200182016040528015610c2c57816020015b6060815260200190600190039081610c175790505b509150600090505b60028054905081101561102957600281815481101515610c5057fe5b90600052602060002090600b020160000160009054906101000a900473ffffffffffffffffffffffffffffffffffffffff168682815181101515610c9057fe5b9060200190602002019073ffffffffffffffffffffffffffffffffffffffff16908173ffffffffffffffffffffffffffffffffffffffff1681525050600281815481101515610cdb57fe5b90600052602060002090600b02016007018054600181600116156101000203166002900480601f016020809104026020016040519081016040528092919081815260200182805460018160011615610100020316600290048015610d805780601f10610d5557610100808354040283529160200191610d80565b820191906000526020600020905b815481529060010190602001808311610d6357829003601f168201915b50505050508582815181101515610d9357fe5b90602001906020020181905250600281815481101515610daf57fe5b90600052602060002090600b02016008018054600181600116156101000203166002900480601f016020809104026020016040519081016040528092919081815260200182805460018160011615610100020316600290048015610e545780601f10610e2957610100808354040283529160200191610e54565b820191906000526020600020905b815481529060010190602001808311610e3757829003601f168201915b50505050508482815181101515610e6757fe5b90602001906020020181905250600281815481101515610e8357fe5b90600052602060002090600b02016009018054600181600116156101000203166002900480601f016020809104026020016040519081016040528092919081815260200182805460018160011615610100020316600290048015610f285780601f10610efd57610100808354040283529160200191610f28565b820191906000526020600020905b815481529060010190602001808311610f0b57829003601f168201915b50505050508382815181101515610f3b57fe5b90602001906020020181905250600281815481101515610f5757fe5b90600052602060002090600b0201600a018054600181600116156101000203166002900480601f016020809104026020016040519081016040528092919081815260200182805460018160011615610100020316600290048015610ffc5780601f10610fd157610100808354040283529160200191610ffc565b820191906000526020600020905b815481529060010190602001808311610fdf57829003601f168201915b5050505050828281518110151561100f57fe5b906020019060200201819052508080600101915050610c34565b85858585859a509a509a509a509a505050505050509091929394565b60028181548110151561105457fe5b90600052602060002090600b02016000915090508060000160009054906101000a900473ffffffffffffffffffffffffffffffffffffffff1690806001018054600181600116156101000203166002900480601f0160208091040260200160405190810160405280929190818152602001828054600181600116156101000203166002900480156111265780601f106110fb57610100808354040283529160200191611126565b820191906000526020600020905b81548152906001019060200180831161110957829003601f168201915b505050505090806002018054600181600116156101000203166002900480601f0160208091040260200160405190810160405280929190818152602001828054600181600116156101000203166002900480156111c45780601f10611199576101008083540402835291602001916111c4565b820191906000526020600020905b8154815290600101906020018083116111a757829003601f168201915b5050505050908060030154908060040160009054906101000a900460ff1690806005015490806006015490806007018054600181600116156101000203166002900480601f0160208091040260200160405190810160405280929190818152602001828054600181600116156101000203166002900480156112875780601f1061125c57610100808354040283529160200191611287565b820191906000526020600020905b81548152906001019060200180831161126a57829003601f168201915b505050505090806008018054600181600116156101000203166002900480601f0160208091040260200160405190810160405280929190818152602001828054600181600116156101000203166002900480156113255780601f106112fa57610100808354040283529160200191611325565b820191906000526020600020905b81548152906001019060200180831161130857829003601f168201915b505050505090806009018054600181600116156101000203166002900480601f0160208091040260200160405190810160405280929190818152602001828054600181600116156101000203166002900480156113c35780601f10611398576101008083540402835291602001916113c3565b820191906000526020600020905b8154815290600101906020018083116113a657829003601f168201915b50505050509080600a018054600181600116156101000203166002900480601f0160208091040260200160405190810160405280929190818152602001828054600181600116156101000203166002900480156114615780601f1061143657610100808354040283529160200191611461565b820191906000526020600020905b81548152906001019060200180831161144457829003601f168201915b505050505090508b565b336000809054906101000a900473ffffffffffffffffffffffffffffffffffffffff1673ffffffffffffffffffffffffffffffffffffffff168173ffffffffffffffffffffffffffffffffffffffff161415156114fd576040517f08c379a00000000000000000000000000000000000000000000000000000000081526004016114f490612202565b60405180910390fd5b8a600160008e73ffffffffffffffffffffffffffffffffffffffff1673ffffffffffffffffffffffffffffffffffffffff1681526020019081526020016000206001019080519060200190611553929190611a34565b5089600160008e73ffffffffffffffffffffffffffffffffffffffff1673ffffffffffffffffffffffffffffffffffffffff16815260200190815260200160002060020190805190602001906115aa929190611a34565b5088600160008e73ffffffffffffffffffffffffffffffffffffffff1673ffffffffffffffffffffffffffffffffffffffff1681526020019081526020016000206003018190555087600160008e73ffffffffffffffffffffffffffffffffffffffff1673ffffffffffffffffffffffffffffffffffffffff16815260200190815260200160002060040160006101000a81548160ff02191690831515021790555086600160008e73ffffffffffffffffffffffffffffffffffffffff1673ffffffffffffffffffffffffffffffffffffffff1681526020019081526020016000206005018190555085600160008e73ffffffffffffffffffffffffffffffffffffffff1673ffffffffffffffffffffffffffffffffffffffff1681526020019081526020016000206006018190555084600160008e73ffffffffffffffffffffffffffffffffffffffff1673ffffffffffffffffffffffffffffffffffffffff1681526020019081526020016000206007019080519060200190611730929190611a34565b5083600160008e73ffffffffffffffffffffffffffffffffffffffff1673ffffffffffffffffffffffffffffffffffffffff1681526020019081526020016000206008019080519060200190611787929190611a34565b5082600160008e73ffffffffffffffffffffffffffffffffffffffff1673ffffffffffffffffffffffffffffffffffffffff16815260200190815260200160002060090190805190602001906117de929190611a34565b5081600160008e73ffffffffffffffffffffffffffffffffffffffff1673ffffffffffffffffffffffffffffffffffffffff168152602001908152602001600020600a019080519060200190611835929190611a34565b506002610160604051908101604052808e73ffffffffffffffffffffffffffffffffffffffff1681526020018d81526020018c81526020018b81526020018a15158152602001898152602001888152602001878152602001868152602001858152602001848152509080600181540180825580915050906001820390600052602060002090600b02016000909192909190915060008201518160000160006101000a81548173ffffffffffffffffffffffffffffffffffffffff021916908373ffffffffffffffffffffffffffffffffffffffff160217905550602082015181600101908051906020019061192b929190611ab4565b506040820151816002019080519060200190611948929190611ab4565b506060820151816003015560808201518160040160006101000a81548160ff02191690831515021790555060a0820151816005015560c0820151816006015560e08201518160070190805190602001906119a3929190611ab4565b506101008201518160080190805190602001906119c1929190611ab4565b506101208201518160090190805190602001906119df929190611ab4565b5061014082015181600a0190805190602001906119fd929190611ab4565b50505050505050505050505050505050565b6000809054906101000a900473ffffffffffffffffffffffffffffffffffffffff1681565b828054600181600116156101000203166002900490600052602060002090601f016020900481019282601f10611a7557805160ff1916838001178555611aa3565b82800160010185558215611aa3579182015b82811115611aa2578251825591602001919060010190611a87565b5b509050611ab09190611b34565b5090565b828054600181600116156101000203166002900490600052602060002090601f016020900481019282601f10611af557805160ff1916838001178555611b23565b82800160010185558215611b23579182015b82811115611b22578251825591602001919060010190611b07565b5b509050611b309190611b34565b5090565b611b5691905b80821115611b52576000816000905550600101611b3a565b5090565b90565b6000611b658235612350565b905092915050565b6000611b798235612370565b905092915050565b600082601f8301121515611b9457600080fd5b8135611ba7611ba28261224f565b612222565b91508082526020830160208301858383011115611bc357600080fd5b611bce838284612386565b50505092915050565b6000611be3823561237c565b905092915050565b600060208284031215611bfd57600080fd5b6000611c0b84828501611b59565b91505092915050565b60008060008060008060008060008060006101608c8e031215611c3657600080fd5b6000611c448e828f01611b59565b9b505060208c013567ffffffffffffffff811115611c6157600080fd5b611c6d8e828f01611b81565b9a505060408c013567ffffffffffffffff811115611c8a57600080fd5b611c968e828f01611b81565b9950506060611ca78e828f01611bd7565b9850506080611cb88e828f01611b6d565b97505060a0611cc98e828f01611bd7565b96505060c0611cda8e828f01611bd7565b95505060e08c013567ffffffffffffffff811115611cf757600080fd5b611d038e828f01611b81565b9450506101008c013567ffffffffffffffff811115611d2157600080fd5b611d2d8e828f01611b81565b9350506101208c013567ffffffffffffffff811115611d4b57600080fd5b611d578e828f01611b81565b9250506101408c013567ffffffffffffffff811115611d7557600080fd5b611d818e828f01611b81565b9150509295989b509295989b9093969950565b600060208284031215611da657600080fd5b6000611db484828501611bd7565b91505092915050565b611dc68161231a565b82525050565b6000611dd7826122af565b808452602084019350611de98361227b565b60005b82811015611e1b57611dff868351611dbd565b611e08826122e6565b9150602086019550600181019050611dec565b50849250505092915050565b6000611e32826122ba565b808452602084019350611e4483612288565b60005b82811015611e7657611e5a868351611f4b565b611e63826122f3565b9150602086019550600181019050611e47565b50849250505092915050565b6000611e8d826122c5565b80845260208401935083602082028501611ea685612295565b60005b84811015611edf578383038852611ec1838351611f5a565b9250611ecc82612300565b9150602088019750600181019050611ea9565b508196508694505050505092915050565b6000611efb826122d0565b808452602084019350611f0d836122a2565b60005b82811015611f3f57611f23868351611fed565b611f2c8261230d565b9150602086019550600181019050611f10565b50849250505092915050565b611f548161233a565b82525050565b6000611f65826122db565b808452611f79816020860160208601612395565b611f82816123c8565b602085010191505092915050565b6000603282527f4f6e6c79207468652061646d696e6973747261746f722063616e206d616b652060208301527f746869732066756e6374696f6e2063616c6c00000000000000000000000000006040830152606082019050919050565b611ff681612346565b82525050565b60006020820190506120116000830184611dbd565b92915050565b60006101608201905061202d600083018e611dbd565b818103602083015261203f818d611f5a565b90508181036040830152612053818c611f5a565b9050612062606083018b611fed565b61206f608083018a611f4b565b61207c60a0830189611fed565b61208960c0830188611fed565b81810360e083015261209b8187611f5a565b90508181036101008301526120b08186611f5a565b90508181036101208301526120c58185611f5a565b90508181036101408301526120da8184611f5a565b90509c9b505050505050505050505050565b600060a08201905081810360008301526121068188611dcc565b9050818103602083015261211a8187611e82565b9050818103604083015261212e8186611e82565b905081810360608301526121428185611e82565b905081810360808301526121568184611e82565b90509695505050505050565b600060e082019050818103600083015261217c818a611dcc565b905081810360208301526121908189611e82565b905081810360408301526121a48188611e82565b905081810360608301526121b88187611ef0565b905081810360808301526121cc8186611e27565b905081810360a08301526121e08185611ef0565b905081810360c08301526121f48184611ef0565b905098975050505050505050565b6000602082019050818103600083015261221b81611f90565b9050919050565b6000604051905081810181811067ffffffffffffffff8211171561224557600080fd5b8060405250919050565b600067ffffffffffffffff82111561226657600080fd5b601f19601f8301169050602081019050919050565b6000602082019050919050565b6000602082019050919050565b6000602082019050919050565b6000602082019050919050565b600081519050919050565b600081519050919050565b600081519050919050565b600081519050919050565b600081519050919050565b6000602082019050919050565b6000602082019050919050565b6000602082019050919050565b6000602082019050919050565b600073ffffffffffffffffffffffffffffffffffffffff82169050919050565b60008115159050919050565b6000819050919050565b600073ffffffffffffffffffffffffffffffffffffffff82169050919050565b60008115159050919050565b6000819050919050565b82818337600083830152505050565b60005b838110156123b3578082015181840152602081019050612398565b838111156123c2576000848401525b50505050565b6000601f19601f83011690509190505600a265627a7a72305820ecff4917dc8082033e302b9b3d6b1457ae6163c048150e942ee1db92f2db3b846c6578706572696d656e74616cf50037",
  "source": "pragma solidity ^0.4.23;\npragma experimental ABIEncoderV2;\n\ncontract PatientRegistrar {\n    address public admin;\n\n    struct Patient {\n        address addr;\n        string email;\n        string gender;\n        uint birthday;\n        bool isSmoker;\n        uint height;\n        uint weight;\n        string drugs; // stringified object\n        string diseases; // SAA\n        string geneticConditions; // SAA\n        string familyHistory; // SAA\n    }\n\n    mapping(address => Patient) public patients;\n    Patient[] public patientList;\n\n    constructor() public {\n        admin = msg.sender;\n    }\n\n    modifier onlyAdmin(address addr) {\n        require(addr == admin, \"Only the administrator can make this function call\");\n        _;\n    }\n\n    // function getPeople(uint[] indexes)\n    //     public\n    //     returns (address[], uint[])\n    // {\n    //     address[] memory addrs = new address[](indexes.length);\n    //     uint[]    memory funds = new uint[](indexes.length);\n\n    //     for (uint i = 0; i < indexes.length; i++) {\n    //         Person storage person = people[indexes[i]];\n    //         addrs[i] = person.addr;\n    //         funds[i] = person.funds;\n    //     }\n\n    //     return (addrs, funds);\n    // }\n\n    function viewPatientsDetail() public view returns (\n        address[],\n        string[], // 8. drugs\n        string[], // 9. diseases\n        string[], // 10.geneticConditions\n        string[] // 11. familyHistory\n    ) {\n        address[] memory p_0 = new address[](patientList.length);\n        string[]    memory p_7 = new string[](patientList.length);\n        string[]    memory p_8 = new string[](patientList.length);\n        string[]    memory p_9 = new string[](patientList.length);\n        string[]    memory p_10 = new string[](patientList.length);\n\n        for (uint i = 0; i < patientList.length; i ++) {\n            p_0[i] = patientList[i].addr;\n            p_7[i] = patientList[i].drugs;\n            p_8[i] = patientList[i].diseases;\n            p_9[i] = patientList[i].geneticConditions;\n            p_10[i] = patientList[i].familyHistory;\n        }\n        return (p_0, p_7, p_8, p_9, p_10);\n    }\n\n    function viewPatients()\n        public\n        view\n        returns (\n            address[], // 1. patientAddress\n            string[], // 2. email\n            string[], // 3. gender\n            uint[], // 4. birthday\n            bool[],  // 5. isSmoker\n            uint[], // 6. height\n            uint[] // 7. weight\n          )\n    {\n        address[] memory p_0 = new address[](patientList.length);\n        string[]    memory p_1 = new string[](patientList.length);\n        string[]    memory p_2 = new string[](patientList.length);\n        uint[]    memory p_3 = new uint[](patientList.length);\n        bool[]    memory p_4 = new bool[](patientList.length);\n        uint[]    memory p_5 = new uint[](patientList.length);\n        uint[]    memory p_6 = new uint[](patientList.length);\n\n        for (uint i = 0; i < patientList.length; i ++) {\n            p_0[i] = patientList[i].addr;\n            p_1[i] = patientList[i].email;\n            p_2[i] = patientList[i].gender;\n            p_3[i] = patientList[i].birthday;\n            p_4[i] = patientList[i].isSmoker;\n            p_5[i] = patientList[i].height;\n            p_6[i] = patientList[i].weight;\n        }\n        return (p_0, p_1, p_2, p_3, p_4, p_5, p_6);\n    }\n\n    function registerPatient(\n        address patientAddress,\n        string email,\n        string gender,\n        uint birthday,\n        bool isSmoker,\n        uint height,\n        uint weight,\n        string drugs,\n        string diseases,\n        string geneticConditions,\n        string familyHistory\n    ) public onlyAdmin(msg.sender)\n    {\n        patients[patientAddress].email = email;\n        patients[patientAddress].gender = gender;\n        patients[patientAddress].birthday = birthday;\n        patients[patientAddress].isSmoker = isSmoker;\n        patients[patientAddress].height = height;\n        patients[patientAddress].weight = weight;\n\n        patients[patientAddress].drugs = drugs;\n        patients[patientAddress].diseases = diseases;\n        patients[patientAddress].geneticConditions = geneticConditions;\n        patients[patientAddress].familyHistory = familyHistory;\n\n        patientList.push(Patient({\n            addr: patientAddress,\n            email: email,\n            gender: gender,\n            birthday: birthday,\n            isSmoker: isSmoker,\n            height: height,\n            weight: weight,\n            drugs: drugs,\n            diseases: diseases,\n            geneticConditions: geneticConditions,\n            familyHistory: familyHistory\n        }));\n    }\n\n}\n",
  "sourcePath": "/Users/paulsoh/Workspace/arena/smartcontracts/contracts/PatientRegistrar.sol",
  "compiler": {
    "name": "solc",
    "version": "0.4.24+commit.e67f0147.Emscripten.clang"
  },
  "schemaVersion": "2.0.1",
  "updatedAt": "2018-09-15T03:43:20.043Z"
}